{
  "contractName": "Voting",
  "abi": [
    {
      "constant": true,
      "inputs": [
        {
          "name": "",
          "type": "bytes32"
        }
      ],
      "name": "votesReceived",
      "outputs": [
        {
          "name": "",
          "type": "uint256"
        }
      ],
      "payable": false,
      "stateMutability": "view",
      "type": "function"
    },
    {
      "constant": true,
      "inputs": [],
      "name": "totalTokens",
      "outputs": [
        {
          "name": "",
          "type": "uint256"
        }
      ],
      "payable": false,
      "stateMutability": "view",
      "type": "function"
    },
    {
      "constant": true,
      "inputs": [],
      "name": "tokenPrice",
      "outputs": [
        {
          "name": "",
          "type": "uint256"
        }
      ],
      "payable": false,
      "stateMutability": "view",
      "type": "function"
    },
    {
      "constant": true,
      "inputs": [],
      "name": "tokenBalance",
      "outputs": [
        {
          "name": "",
          "type": "uint256"
        }
      ],
      "payable": false,
      "stateMutability": "view",
      "type": "function"
    },
    {
      "constant": true,
      "inputs": [
        {
          "name": "",
          "type": "uint256"
        }
      ],
      "name": "candidateList",
      "outputs": [
        {
          "name": "",
          "type": "bytes32"
        }
      ],
      "payable": false,
      "stateMutability": "view",
      "type": "function"
    },
    {
      "constant": true,
      "inputs": [
        {
          "name": "",
          "type": "address"
        }
      ],
      "name": "voterInfo",
      "outputs": [
        {
          "name": "voterAddress",
          "type": "address"
        },
        {
          "name": "tokenNum",
          "type": "uint256"
        }
      ],
      "payable": false,
      "stateMutability": "view",
      "type": "function"
    },
    {
      "inputs": [
        {
          "name": "totalSupply",
          "type": "uint256"
        },
        {
          "name": "price",
          "type": "uint256"
        },
        {
          "name": "candidateNames",
          "type": "bytes32[]"
        }
      ],
      "payable": false,
      "stateMutability": "nonpayable",
      "type": "constructor"
    },
    {
      "constant": false,
      "inputs": [],
      "name": "buy",
      "outputs": [
        {
          "name": "",
          "type": "uint256"
        }
      ],
      "payable": true,
      "stateMutability": "payable",
      "type": "function"
    },
    {
      "constant": false,
      "inputs": [
        {
          "name": "candidate",
          "type": "bytes32"
        },
        {
          "name": "voteTokens",
          "type": "uint256"
        }
      ],
      "name": "voteForCandidate",
      "outputs": [],
      "payable": false,
      "stateMutability": "nonpayable",
      "type": "function"
    },
    {
      "constant": true,
      "inputs": [
        {
          "name": "candidate",
          "type": "bytes32"
        }
      ],
      "name": "totalVotesFor",
      "outputs": [
        {
          "name": "",
          "type": "uint256"
        }
      ],
      "payable": false,
      "stateMutability": "view",
      "type": "function"
    },
    {
      "constant": true,
      "inputs": [
        {
          "name": "votesForCandidate",
          "type": "uint256[]"
        }
      ],
      "name": "totalUsedTokens",
      "outputs": [
        {
          "name": "",
          "type": "uint256"
        }
      ],
      "payable": false,
      "stateMutability": "pure",
      "type": "function"
    },
    {
      "constant": true,
      "inputs": [
        {
          "name": "candidate",
          "type": "bytes32"
        }
      ],
      "name": "indexOfCandidate",
      "outputs": [
        {
          "name": "",
          "type": "uint256"
        }
      ],
      "payable": false,
      "stateMutability": "view",
      "type": "function"
    },
    {
      "constant": true,
      "inputs": [],
      "name": "tokenSold",
      "outputs": [
        {
          "name": "",
          "type": "uint256"
        }
      ],
      "payable": false,
      "stateMutability": "view",
      "type": "function"
    },
    {
      "constant": true,
      "inputs": [
        {
          "name": "voterAddr",
          "type": "address"
        }
      ],
      "name": "voterDetails",
      "outputs": [
        {
          "name": "",
          "type": "uint256"
        },
        {
          "name": "",
          "type": "uint256[]"
        }
      ],
      "payable": false,
      "stateMutability": "view",
      "type": "function"
    },
    {
      "constant": true,
      "inputs": [],
      "name": "allCandidate",
      "outputs": [
        {
          "name": "",
          "type": "bytes32[]"
        }
      ],
      "payable": false,
      "stateMutability": "view",
      "type": "function"
    },
    {
      "constant": false,
      "inputs": [
        {
          "name": "_to",
          "type": "address"
        }
      ],
      "name": "transfer",
      "outputs": [],
      "payable": false,
      "stateMutability": "nonpayable",
      "type": "function"
    }
  ],
  "bytecode": "0x608060405234801561001057600080fd5b50604051610d53380380610d53833981018060405281019080805190602001909291908051906020019092919080518201929190505050826000819055508260018190555081600281905550806003908051906020019061007292919061007b565b505050506100f3565b8280548282559060005260206000209081019282156100bd579160200282015b828111156100bc57825182906000191690559160200191906001019061009b565b5b5090506100ca91906100ce565b5090565b6100f091905b808211156100ec5760008160009055506001016100d4565b5090565b90565b610c51806101026000396000f3006080604052600436106100db576000357c0100000000000000000000000000000000000000000000000000000000900463ffffffff1680631a695230146100e05780632f265cf714610123578063519ee19e146101685780635938750d146101935780636b2dc6b5146102325780637021939f1461026d5780637e1c0c09146102b25780637ff9b596146102dd5780639e1a4d1914610308578063a25aaf2414610333578063a6f2ae3a146103ad578063af3db5e4146103cb578063b13c744b14610437578063cdf58d3514610480578063ecd098b01461050a575b600080fd5b3480156100ec57600080fd5b50610121600480360381019080803573ffffffffffffffffffffffffffffffffffffffff16906020019092919050505061054f565b005b34801561012f57600080fd5b5061015260048036038101908080356000191690602001909291905050506105b0565b6040518082815260200191505060405180910390f35b34801561017457600080fd5b5061017d6105d5565b6040518082815260200191505060405180910390f35b34801561019f57600080fd5b506101d4600480360381019080803573ffffffffffffffffffffffffffffffffffffffff1690602001909291905050506105e3565b6040518083815260200180602001828103825283818151815260200191508051906020019060200280838360005b8381101561021d578082015181840152602081019050610202565b50505050905001935050505060405180910390f35b34801561023e57600080fd5b5061026b6004803603810190808035600019169060200190929190803590602001909291905050506106c7565b005b34801561027957600080fd5b5061029c6004803603810190808035600019169060200190929190505050610966565b6040518082815260200191505060405180910390f35b3480156102be57600080fd5b506102c761097e565b6040518082815260200191505060405180910390f35b3480156102e957600080fd5b506102f2610984565b6040518082815260200191505060405180910390f35b34801561031457600080fd5b5061031d61098a565b6040518082815260200191505060405180910390f35b34801561033f57600080fd5b5061039760048036038101908080359060200190820180359060200190808060200260200160405190810160405280939291908181526020018383602002808284378201915050505050509192919290505050610990565b6040518082815260200191505060405180910390f35b6103b56109d9565b6040518082815260200191505060405180910390f35b3480156103d757600080fd5b506103e0610ae5565b6040518080602001828103825283818151815260200191508051906020019060200280838360005b83811015610423578082015181840152602081019050610408565b505050509050019250505060405180910390f35b34801561044357600080fd5b5061046260048036038101908080359060200190929190505050610b41565b60405180826000191660001916815260200191505060405180910390f35b34801561048c57600080fd5b506104c1600480360381019080803573ffffffffffffffffffffffffffffffffffffffff169060200190929190505050610b64565b604051808373ffffffffffffffffffffffffffffffffffffffff1673ffffffffffffffffffffffffffffffffffffffff1681526020018281526020019250505060405180910390f35b34801561051657600080fd5b506105396004803603810190808035600019169060200190929190505050610ba8565b6040518082815260200191505060405180910390f35b8073ffffffffffffffffffffffffffffffffffffffff166108fc3073ffffffffffffffffffffffffffffffffffffffff16319081150290604051600060405180830381858888f193505050501580156105ac573d6000803e3d6000fd5b5050565b6000600460008360001916600019168152602001908152602001600020549050919050565b600060015460005403905090565b60006060600560008473ffffffffffffffffffffffffffffffffffffffff1673ffffffffffffffffffffffffffffffffffffffff16815260200190815260200160002060010154600560008573ffffffffffffffffffffffffffffffffffffffff1673ffffffffffffffffffffffffffffffffffffffff168152602001908152602001600020600201808054806020026020016040519081016040528092919081815260200182805480156106b757602002820191906000526020600020905b8154815260200190600101908083116106a3575b5050505050905091509150915091565b60008060006106d585610ba8565b92507fffffffffffffffffffffffffffffffffffffffffffffffffffffffffffffffff831415151561070657600080fd5b6000600560003373ffffffffffffffffffffffffffffffffffffffff1673ffffffffffffffffffffffffffffffffffffffff1681526020019081526020016000206002018054905014156107e157600091505b6003805490508210156107e057600560003373ffffffffffffffffffffffffffffffffffffffff1673ffffffffffffffffffffffffffffffffffffffff168152602001908152602001600020600201600090806001815401808255809150509060018203906000526020600020016000909192909190915055508180600101925050610759565b5b61087a600560003373ffffffffffffffffffffffffffffffffffffffff1673ffffffffffffffffffffffffffffffffffffffff16815260200190815260200160002060020180548060200260200160405190810160405280929190818152602001828054801561087057602002820191906000526020600020905b81548152602001906001019080831161085c575b5050505050610990565b600560003373ffffffffffffffffffffffffffffffffffffffff1673ffffffffffffffffffffffffffffffffffffffff168152602001908152602001600020600101540390508381101515156108cf57600080fd5b836004600087600019166000191681526020019081526020016000206000828254019250508190555083600560003373ffffffffffffffffffffffffffffffffffffffff1673ffffffffffffffffffffffffffffffffffffffff1681526020019081526020016000206002018481548110151561094857fe5b90600052602060002001600082825401925050819055505050505050565b60046020528060005260406000206000915090505481565b60005481565b60025481565b60015481565b6000806000809150600090505b83518110156109cf5783818151811015156109b457fe5b9060200190602002015182019150808060010191505061099d565b8192505050919050565b600080600254348115156109e957fe5b04905060015481111515156109fd57600080fd5b33600560003373ffffffffffffffffffffffffffffffffffffffff1673ffffffffffffffffffffffffffffffffffffffff16815260200190815260200160002060000160006101000a81548173ffffffffffffffffffffffffffffffffffffffff021916908373ffffffffffffffffffffffffffffffffffffffff16021790555080600560003373ffffffffffffffffffffffffffffffffffffffff1673ffffffffffffffffffffffffffffffffffffffff16815260200190815260200160002060010160008282540192505081905550806001600082825403925050819055508091505090565b60606003805480602002602001604051908101604052809291908181526020018280548015610b3757602002820191906000526020600020905b81546000191681526020019060010190808311610b1f575b5050505050905090565b600381815481101515610b5057fe5b906000526020600020016000915090505481565b60056020528060005260406000206000915090508060000160009054906101000a900473ffffffffffffffffffffffffffffffffffffffff16908060010154905082565b600080600090505b600380549050811015610bfb57600381815481101515610bcc57fe5b90600052602060002001546000191683600019161415610bee57809150610c1f565b8080600101915050610bb0565b7fffffffffffffffffffffffffffffffffffffffffffffffffffffffffffffffff91505b509190505600a165627a7a723058207a4faaf59a19cb2b1a7621e809c91b4096e8c0326989d2a2beffec1d607dc1820029",
  "source": "pragma solidity ^0.4.18;\n\ncontract Voting{\n    struct voter{\n        address voterAddress;\n        uint tokenNum;\n        uint[] tokensVoteForCandidates;\n    }\n    uint public totalTokens;\n    uint public tokenBalance;\n    uint public tokenPrice;\n    bytes32[] public candidateList;\n    mapping(bytes32=>uint) public votesReceived;\n    mapping(address=>voter) public voterInfo;\n\n    constructor(uint totalSupply, uint price, bytes32[] candidateNames) public{\n        totalTokens = totalSupply;\n        tokenBalance = totalSupply;\n        tokenPrice = price;\n        candidateList = candidateNames;\n    }\n    function buy() payable public returns(uint){\n        uint tokensToBuy = msg.value / tokenPrice;\n        require(tokensToBuy <= tokenBalance);\n        voterInfo[msg.sender].voterAddress = msg.sender;\n        voterInfo[msg.sender].tokenNum += tokensToBuy;\n        tokenBalance -= tokensToBuy;\n        return tokensToBuy;\n    }\n    function voteForCandidate(bytes32 candidate, uint voteTokens) public{\n        uint index = indexOfCandidate(candidate);\n        require(index != uint(-1));\n        if( voterInfo[msg.sender].tokensVoteForCandidates.length == 0 ){\n            for(uint i=0; i < candidateList.length; i++){\n                voterInfo[msg.sender].tokensVoteForCandidates.push(0);\n            }\n        }\n        uint availableTokens = voterInfo[msg.sender].tokenNum - totalUsedTokens(voterInfo[msg.sender].tokensVoteForCandidates);\n        require(availableTokens >= voteTokens);\n        votesReceived[candidate] += voteTokens;\n        voterInfo[msg.sender].tokensVoteForCandidates[index] += voteTokens;\n    }\n    function totalVotesFor(bytes32 candidate) public view returns(uint){\n        return votesReceived[candidate];\n    }\n    function totalUsedTokens(uint[] votesForCandidate) public pure returns(uint){\n        uint usedTokens = 0;\n        for(uint i=0; i < votesForCandidate.length; i++){\n            usedTokens += votesForCandidate[i];\n        }\n        return usedTokens;\n    }\n    function indexOfCandidate(bytes32 candidate) public view returns(uint){\n        for(uint i = 0; i < candidateList.length; i++){\n            if(candidate == candidateList[i])\n                return i;\n        }\n        return uint(-1);\n    }\n    function tokenSold() public view returns(uint){\n        return totalTokens - tokenBalance;\n    }\n    function voterDetails(address voterAddr) public view returns(uint, uint[]) {\n        return ( voterInfo[voterAddr].tokenNum, voterInfo[voterAddr].tokensVoteForCandidates);\n    }\n    function allCandidate() public view returns(bytes32[]) {\n        return candidateList;\n    }\n    function transfer(address _to) public{\n        _to.transfer(address(this).balance);\n    }\n}",
  "sourcePath": "/home/ubuntu/project/truffle_project/contracts/Voting.sol",
  "compiler": {
    "name": "solc",
    "version": "0.4.24+commit.e67f0147.Emscripten.clang"
  },
  "schemaVersion": "2.0.1",
  "updatedAt": "2018-11-09T01:38:26.575Z"
}